:100000000C9404010C94ED070C941E080C944F08FA
:100010000C9480080C94B1080C94E2080C94130919
:100020000C9444090C9431010C9431010C9431016D
:100030000C9431010C9431010C9431010C94310178
:100040000C9431010C9431010C9431010C94310168
:100050000C9431010C9431010C9431010C9475090C
:100060000C9431010C946A020C9466030C943101D7
:100070000C9431010C9431010C9431010C94310138
:100080000C9431010C9431010C9431010C94310128
:100090000C94A9020C94A5030C9431010C94310129
:1000A0000C9431010C9431010C9431010C94310108
:1000B0000C9431010C9431010C9431010C943101F8
:1000C0000C9431010C9431010C94B4170C94E80297
:1000D0000C94E4030C9431010C9427030C94230436
:1000E0000C94310100002100240027002A002D007B
:1000F0003000330001010000040107010A01000083
:100100002200250028002B002E00310034000201BF
:100110000000050108010B0100002000230026005B
:1001200029002C002F00320000010000030106010D
:10013000090105050505070508080808020202026D
:100140000A0A080804040404010101010101010173
:100150000303030303030303040707070C0C0C0C3E
:100160000C0C0C0C02020202060606060606060627
:100170000B0B0B0B0B0B0B0B0102102020080810B4
:100180002040102040800201020108040201010207
:1001900004081020408080402010080402018004E0
:1001A000020180402010080402010804020101023B
:1001B0000408102040800102040810204080000044
:1001C000090A02080B0C0D070603040100000000D9
:1001D000000000000000000000000000000000001F
:1001E0000000000000000000000011100F000000DF
:1001F00000000000000000000000000000000000FF
:10020000000000009305C90611241FBECFEFD1E204
:10021000DEBFCDBF00E00CBF14E0A0E0B2E0E0E341
:10022000F1E700E00BBF02C007900D92A834B107C0
:10023000D9F71BBE19E0A8E4B4E001C01D92AA3EA4
:10024000B107E1F712E0C8E0D2E004C02297FE0156
:100250000E949238C430D107C9F70E94BD160C9491
:1002600096380C9400000F931F93CF93DF93689FF1
:100270008001699F100D789F100D1124C8010E9404
:100280004F01EC01009729F060E070E0A8010E94A6
:100290005A02CE01DF91CF911F910F910895CF9314
:1002A000DF93BC018230910510F462E070E0A09110
:1002B000E809B091E909ED01E0E0F0E040E050E04C
:1002C00021C0888199818617970769F48A819B816B
:1002D000309719F09383828304C09093E909809347
:1002E000E809FE0134C06817790738F44115510553
:1002F00019F08417950708F4AC01FE018A819B81EF
:100300009C01E9012097E9F641155105A9F1CA01BF
:10031000861B970B049708F4BA01E0E0F0E02AC0CE
:100320008D919C91119784179507F9F464177507BF
:1003300081F412968D919C911397309719F09383C5
:10034000828304C09093E9098093E809FD01329605
:100350004CC0CA01861B970BFD01E80FF91F619382
:10036000719302978D939C9340C0FD01828193818C
:100370009C01D9011097A1F68091E6099091E709B7
:10038000892B41F480910403909105039093E70930
:100390008093E609409106035091070341155105EA
:1003A00041F44DB75EB78091020390910303481B5F
:1003B000590B2091E6093091E709CA01821B930B82
:1003C0008617970780F0AB014E5F5F4F8417950744
:1003D00050F0420F531F5093E7094093E609F9018B
:1003E0006193719302C0E0E0F0E0CF01DF91CF9123
:1003F0000895CF93DF93009709F450C0EC01229742
:100400001B821A82A091E809B091E909109709F1BD
:1004100040E050E0AC17BD0708F1BB83AA83FE01A2
:1004200021913191E20FF31FAE17BF0779F48D913F
:100430009C911197280F391F2E5F3F4F39832883D6
:1004400012968D919C9113979B838A834115510538
:1004500071F4D093E909C093E80920C012968D91F8
:100460009C911397AD01009711F0DC01D3CFFA01F5
:10047000D383C28321913191E20FF31FCE17DF079F
:1004800069F488819981280F391F2E5F3F4FFA0147
:10049000318320838A819B8193838283DF91CF91F3
:1004A0000895FB01DC0102C001900D9241505040C3
:1004B000D8F70895DC0101C06D9341505040E0F73A
:1004C0000895FB01DC018D91019080190110D9F391
:1004D000990B08951F920F920FB60F920BB60F92C1
:1004E00011242F933F934F938F939F93EF93FF93F9
:1004F0008091C00082FD1DC04091C60020918804FB
:10050000309189042F5F3F4F2F73307080918A04A0
:1005100090918B042817390771F0E0918804F091CD
:100520008904E85BFB4F408330938904209388045F
:1005300002C08091C600FF91EF919F918F914F91E2
:100540003F912F910F900BBE0F900FBE0F901F90F9
:1005500018951F920F920FB60F920BB60F9211249F
:100560002F933F934F938F939F93EF93FF9380919C
:10057000C80082FD1DC04091CE0020911005309131
:1005800011052F5F3F4F2F733070809112059091AE
:1005900013052817390771F0E0911005F091110546
:1005A000E053FB4F4083309311052093100502C0A8
:1005B0008091CE00FF91EF919F918F914F913F914C
:1005C0002F910F900BBE0F900FBE0F901F9018959C
:1005D0001F920F920FB60F920BB60F9211242F930A
:1005E0003F934F938F939F93EF93FF938091D0000E
:1005F00082FD1DC04091D60020919805309199054B
:100600002F5F3F4F2F73307080919A0590919B051B
:100610002817390771F0E0919805F0919905E85A8B
:10062000FA4F4083309399052093980502C080913A
:10063000D600FF91EF919F918F914F913F912F9114
:100640000F900BBE0F900FBE0F901F9018951F922A
:100650000F920FB60F920BB60F9211242F933F9368
:100660004F938F939F93EF93FF938091300182FD7F
:100670001DC04091360120912006309121062F5F48
:100680003F4F2F73307080912206909123062817D8
:10069000390771F0E0912006F0912106E052FA4FFF
:1006A0004083309321062093200602C080913601BA
:1006B000FF91EF919F918F914F913F912F910F90CB
:1006C0000BBE0F900FBE0F901F9018951F920F92A8
:1006D0000FB60F920BB60F9211242F933F938F9367
:1006E0009F93EF93FF932091CC043091CD048091A0
:1006F000CE049091CF042817390731F48091C100BE
:100700008F7D8093C10014C0E091CE04F091CF049E
:10071000E457FB4F20818091CE049091CF04019645
:100720008F7390709093CF048093CE042093C60073
:10073000FF91EF919F918F913F912F910F900BBE61
:100740000F900FBE0F901F9018951F920F920FB62B
:100750000F920BB60F9211242F933F938F939F9379
:10076000EF93FF93209154053091550580915605E4
:10077000909157052817390731F48091C9008F7D72
:100780008093C90014C0E0915605F0915705EC5EC6
:10079000FA4F2081809156059091570501968F73ED
:1007A000907090935705809356052093CE00FF914B
:1007B000EF919F918F913F912F910F900BBE0F90D2
:1007C0000FBE0F901F9018951F920F920FB60F92A9
:1007D0000BB60F9211242F933F938F939F93EF9318
:1007E000FF932091DC053091DD058091DE0590912D
:1007F000DF052817390731F48091D1008F7D809370
:10080000D10014C0E091DE05F091DF05E456FA4F07
:1008100020818091DE059091DF0501968F739070A5
:100820009093DF058093DE052093D600FF91EF9132
:100830009F918F913F912F910F900BBE0F900FBE04
:100840000F901F9018951F920F920FB60F920BB634
:100850000F9211242F933F938F939F93EF93FF93C6
:100860002091640630916506809166069091670636
:100870002817390731F4809131018F7D8093310140
:1008800014C0E0916606F0916706EC5DF94F208197
:10089000809166069091670601968F739070909391
:1008A00067068093660620933601FF91EF919F9132
:1008B0008F913F912F910F900BBE0F900FBE0F9015
:1008C0001F901895AF92BF92DF92EF92FF920F9315
:1008D0001F93CF93DF93EC017A018B01DD2440302D
:1008E00081EE580780E0680780E0780711F0DD248A
:1008F000D39491E0A92EB12CEC89FD89DD2069F01B
:10090000C50108A002C0880F991F0A94E2F78083EE
:1009100060E079E08DE390E005C0108260E874E863
:100920008EE190E0A80197010E946E38215030407E
:1009300040405040569547953795279580E12030A7
:10094000380720F0DD2011F0DD24D6CFE889F989C1
:100950003083EA89FB89208319A2EE89FF894081CF
:1009600021E030E0C9010C8C02C0880F991F0A9465
:10097000E2F7482B4083EE89FF894081C9010D8C45
:1009800002C0880F991F0A94E2F7482B4083EE8932
:10099000FF894081C9010E8C02C0880F991F0A94FB
:1009A000E2F7482B4083EE89FF8980810F8C02C0DB
:1009B000220F331F0A94E2F7209528232083DF912A
:1009C000CF911F910F91FF90EF90DF90BF90AF906C
:1009D0000895DC011C96ED91FC911D97E05CFF4FA2
:1009E0002191319180819181281B390B2F733070B7
:1009F000C9010895DC011C96ED91FC911D97E05C06
:100A0000FF4F20813181E054F040DF01AE5BBF4FEA
:100A10008D919C9111972817390719F42FEF3FEF0B
:100A200007C08D919C91E80FF91F8081282F30E03D
:100A3000C9010895DC011C96ED91FC911D97E05CC5
:100A4000FF4F20813181E054F040DF01AE5BBF4FAA
:100A50008D919C9111972817390719F42FEF3FEFCB
:100A600010C08D919C911197E80FF91F20818D91F5
:100A70009C91119701968F73907011969C938E9311
:100A800030E0C9010895DC0191968C9191978823FB
:100A900039F05496ED91FC915597808186FFF9CFFE
:100AA00091961C920895CF93DF93EC01EE85FF851C
:100AB000E05CFF4F20813181E054F0402F5F3F4FD9
:100AC0002F733070DF01AE5BBF4F8D919C911197FA
:100AD00028173907D1F3E05CFF4F80819181E05402
:100AE000F040E80FF91F6083EE85FF85E05CFF4F63
:100AF00031832083EE89FF89208181E090E00F8C93
:100B000002C0880F991F0A94E2F7282B208381E006
:100B100089A3EC89FD8980818064808381E090E0F5
:100B2000DF91CF9108951F9310926B0610926A0681
:100B300028EE33E040E050E020936C0630936D06E1
:100B400040936E0650936F066FE074E070936906F1
:100B50006093680688E494E0909375068093740629
:100B60008CE894E0909377068093760685EC90E08D
:100B7000909379068093780684EC90E090937B06BE
:100B800080937A0680EC90E090937D0680937C06BB
:100B900081EC90E090937F0680937E0682EC90E05B
:100BA000909381068093800686EC90E09093830674
:100BB0008093820614E010938406B3E0B093850618
:100BC000A7E0A0938606F5E0F0938706E1E0E093C6
:100BD000880610928D0610928C0620938E06309314
:100BE0008F06409390065093910670938B06609306
:100BF0008A0680ED94E0909397068093960684E1B0
:100C000095E090939906809398068DEC90E09093F0
:100C10009B0680939A068CEC90E090939D068093BF
:100C20009C0688EC90E090939F0680939E0689EC4A
:100C300090E09093A1068093A0068AEC90E09093B8
:100C4000A3068093A2068EEC90E09093A506809375
:100C5000A4061093A606B093A706A093A806F09347
:100C6000A906E093AA061092AF061092AE06209352
:100C7000B0063093B1064093B2065093B30670931A
:100C8000AD066093AC0688E595E09093B906809335
:100C9000B8068CE995E09093BB068093BA0685ED83
:100CA00090E09093BD068093BC0684ED90E0909315
:100CB000BF068093BE0680ED90E09093C1068093BE
:100CC000C00681ED90E09093C3068093C20682ED4A
:100CD00090E09093C5068093C40686ED90E09093D3
:100CE000C7068093C6061093C806B093C906A093A2
:100CF000CA06F093CB06E093CC061092D106109270
:100D0000D0062093D2063093D3064093D406509356
:100D1000D5067093CF066093CE0680EE95E0909353
:100D2000DB068093DA0684E296E09093DD068093FA
:100D3000DC0685E391E09093DF068093DE0684E392
:100D400091E09093E1068093E00680E391E0909338
:100D5000E3068093E20681E391E09093E5068093B9
:100D6000E40682E391E09093E7068093E60686E34B
:100D700091E09093E9068093E8061093EA06B09319
:100D8000EB06A093EC06F093ED06E093EE061F91C0
:100D900008958FE194E09093F1068093F00610920D
:100DA000F2061092F3061092F4061092F5060895DA
:100DB0008F929F92AF92BF92CF92DF92EF92FF926B
:100DC0000F931F93CF93DF934C016B017C01AA24F7
:100DD000BB24C0E0D0E0C601F70162814AE050E0E8
:100DE0000E94DB078C01C6016EE20E944407080FD7
:100DF000191FA00EB11E21960894E11CF11CC330EE
:100E0000D10549F7C601F40165814AE050E00E942E
:100E1000DB079501280F391FC901DF91CF911F9181
:100E20000F91FF90EF90DF90CF90BF90AF909F9089
:100E30008F900895CF92DF92EF92FF920F931F93BE
:100E4000CF93DF937C016B018A01C0E0D0E00FC03B
:100E5000D6016D916D01D701ED91FC910190F0816A
:100E6000E02DC7011995C80FD91F01501040011579
:100E7000110571F7CE01DF91CF911F910F91FF9076
:100E8000EF90DF90CF900895DC01ED91FC910190FF
:100E9000F081E02D19950895CF93DF93EC01611552
:100EA000710519F420E030E00FC0DB010D90002047
:100EB000E9F71197A61BB70BE881F9810280F3814E
:100EC000E02DAD0119959C01C901DF91CF910895E5
:100ED0004F925F927F928F929F92AF92BF92CF92EA
:100EE000DF92EF92FF920F931F93DF93CF93CDB7D3
:100EF000DEB7A1970FB6F894DEBF0FBECDBF2C01B1
:100F0000742ECB01223008F42AE019A231E2C32E5C
:100F1000D12CCC0EDD1E822E9924AA24BB24672D51
:100F2000752FA50194010E946E3879018A01C801CC
:100F3000B701A50194010E944F38472D461B089424
:100F4000C108D1084A3014F4405D01C0495CF60183
:100F50004083E114F1040105110521F07E2C5F2D81
:100F6000C801DDCFC201B6010E944C07A1960FB6A1
:100F7000F894DEBF0FBECDBFCF91DF911F910F91CF
:100F8000FF90EF90DF90CF90BF90AF909F908F90A9
:100F90007F905F904F900895DC012115310541F459
:100FA000ED91FC910190F081E02D642F1995089549
:100FB0000E9468070895EF92FF920F931F939A0182
:100FC000E62EFF2400E010E0B801A7010E94CC0744
:100FD0001F910F91FF90EF9008951F920F920FB6FF
:100FE0000F920BB60F9211242F933F934F935F9361
:100FF0006F937F938F939F93AF93BF93EF93FF93E1
:101000008091FA069091FB06892B29F0E091FA066F
:10101000F091FB061995FF91EF91BF91AF919F91D0
:101020008F917F916F915F914F913F912F910F9091
:101030000BBE0F900FBE0F901F9018951F920F922E
:101040000FB60F920BB60F9211242F933F934F932D
:101050005F936F937F938F939F93AF93BF93EF9320
:10106000FF938091FC069091FD06892B29F0E09179
:10107000FC06F091FD061995FF91EF91BF91AF919C
:101080009F918F917F916F915F914F913F912F91A0
:101090000F900BBE0F900FBE0F901F9018951F92D0
:1010A0000F920FB60F920BB60F9211242F933F930E
:1010B0004F935F936F937F938F939F93AF93BF9360
:1010C000EF93FF938091FE069091FF06892B29F004
:1010D000E091FE06F091FF061995FF91EF91BF9107
:1010E000AF919F918F917F916F915F914F913F91C0
:1010F0002F910F900BBE0F900FBE0F901F90189561
:101100001F920F920FB60F920BB60F9211242F93CE
:101110003F934F935F936F937F938F939F93AF937F
:10112000BF93EF93FF938091000790910107892B64
:1011300029F0E0910007F09101071995FF91EF91D7
:10114000BF91AF919F918F917F916F915F914F91DF
:101150003F912F910F900BBE0F900FBE0F901F90DD
:1011600018951F920F920FB60F920BB60F92112483
:101170002F933F934F935F936F937F938F939F939F
:10118000AF93BF93EF93FF938091F6069091F7068C
:10119000892B29F0E091F606F091F7061995FF9159
:1011A000EF91BF91AF919F918F917F916F915F91DF
:1011B0004F913F912F910F900BBE0F900FBE0F904C
:1011C0001F9018951F920F920FB60F920BB60F92A9
:1011D00011242F933F934F935F936F937F938F933C
:1011E0009F93AF93BF93EF93FF938091F8069091F5
:1011F000F906892B29F0E091F806F091F906199586
:10120000FF91EF91BF91AF919F918F917F916F91DE
:101210005F914F913F912F910F900BBE0F900FBE9A
:101220000F901F9018951F920F920FB60F920BB64A
:101230000F9211242F933F934F935F936F937F935C
:101240008F939F93AF93BF93EF93FF938091020788
:1012500090910307892B29F0E0910207F091030791
:101260001995FF91EF91BF91AF919F918F917F91D0
:101270006F915F914F913F912F910F900BBE0F9007
:101280000FBE0F901F9018951F920F920FB60F92DE
:101290000BB60F9211242F933F934F935F936F934D
:1012A0007F938F939F93AF93BF93EF93FF9380911F
:1012B000040790910507892B29F0E0910407F0912C
:1012C00005071995FF91EF91BF91AF919F918F9174
:1012D0007F916F915F914F913F912F910F900BBE36
:1012E0000F900FBE0F901F9018951F920F920FB680
:1012F0000F9211242F933F938F939F93AF93BF939C
:1013000080910A0790910B07A0910C07B0910D07EF
:1013100030910E070196A11DB11D232F2D5F2D3792
:1013200020F02D570196A11DB11D20930E0780932B
:101330000A0790930B07A0930C07B0930D078091B9
:10134000060790910707A0910807B0910907019639
:10135000A11DB11D8093060790930707A09308076E
:10136000B0930907BF91AF919F918F913F912F91BA
:101370000F900FBE0F901F9018959B01AC017FB787
:10138000F8948091060790910707A0910807B09103
:10139000090766B5A89B05C06F3F19F00196A11D0E
:1013A000B11D7FBFBA2FA92F982F8827860F911DB7
:1013B000A11DB11D62E0880F991FAA1FBB1F6A956E
:1013C000D1F7BC012DC0FFB7F8948091060790912A
:1013D0000707A0910807B0910907E6B5A89B05C0CB
:1013E000EF3F19F00196A11DB11DFFBFBA2FA92F24
:1013F000982F88278E0F911DA11DB11DE2E0880F47
:10140000991FAA1FBB1FEA95D1F7861B970B885E11
:101410009340C8F2215030404040504068517C4FCA
:10142000211531054105510571F60895789484B56B
:10143000826084BD84B5816084BD85B5826085BDD0
:1014400085B5816085BDEEE6F0E0808181608083B6
:10145000E1E8F0E010828081826080838081816099
:101460008083E0E8F0E0808181608083E1EBF0E060
:10147000808184608083E0EBF0E080818160808304
:10148000E1E9F0E0808182608083808181608083F7
:10149000E0E9F0E0808181608083E1EAF0E0808132
:1014A00082608083808181608083E0EAF0E08081D7
:1014B00081608083E1E2F1E08081826080838081CD
:1014C00081608083E0E2F1E0808181608083EAE7EF
:1014D000F0E080818460808380818260808380816D
:1014E000816080838081806880831092C10008952C
:1014F000382F863308F0365320917B00832F869552
:101500008695869590E08170907043E0880F991FD2
:101510004A95E1F7277F282B20937B003770809135
:1015200008038295880F880F807C832B80937C0032
:1015300080917A00806480937A0080917A0086FDA1
:10154000FCCF2091780040917900942F80E030E02A
:10155000282B392BC90108951F93CF93DF93182FA0
:10156000EB0161E00E948C0B209709F4CAC0CF3FC9
:10157000D10509F4C9C0E12FF0E0E254FE4F849197
:10158000893009F466C08A30B0F48430F1F18530D6
:1015900040F4823059F1833070F5813009F0AEC0EB
:1015A00020C0873009F443C0883008F048C0863036
:1015B00009F0A4C034C08D3009F478C08E3038F4FE
:1015C0008B3009F45AC08C3008F066C04CC08031B2
:1015D00009F480C0813109F487C08F3009F08EC0D2
:1015E0006FC084B5806884BDC7BD92C084B5806279
:1015F00084BDC8BD8DC080918000806880938000CC
:10160000D0938900C093880083C08091800080625D
:1016100080938000D0938B00C0938A0079C0809122
:10162000B00080688093B000C093B30071C0809117
:10163000B00080628093B000C093B40069C0809114
:101640009000806880939000D0939900C093980098
:101650005FC080919000806280939000D0939B0047
:10166000C0939A0055C0809190008860809390004C
:10167000D0939D00C0939C004BC08091A0008068D7
:101680008093A0008091A0008F7B8093A000D093D6
:10169000A900C093A8003CC08091A0008062809304
:1016A000A000D093AB00C093AA0032C08091A000EC
:1016B00088608093A000D093AD00C093AC0028C098
:1016C00080912001806880932001D0932901C093EC
:1016D00028011EC080912001806280932001D09358
:1016E0002B01C0932A0114C080912001886080934F
:1016F0002001D0932D01C0932C010AC0C038D10520
:101700001CF4812F60E002C0812F61E00E943F0C39
:10171000DF91CF911F910895CF93DF93482F50E031
:10172000CA0188589E4FFC0134914E5C5E4FFA010D
:101730008491882369F190E0880F991FFC01EC5196
:10174000FF4FA591B491FC01E250FF4FC591D49198
:10175000662351F42FB7F8948C91932F9095892399
:101760008C93888189230BC0623061F42FB7F89481
:101770008C91932F909589238C938881832B8883D8
:101780002FBF06C09FB7F8948C91832B8C939FBF7B
:10179000DF91CF910895893009F449C08A30A0F4CF
:1017A000843051F1853040F4823079F1833000F596
:1017B000813009F063C026C0873079F1883098F510
:1017C000863009F05BC025C08D3009F442C08E30F0
:1017D00028F48B30B1F18C30C0F52DC0803109F484
:1017E00042C0813109F445C08F3009F047C037C08D
:1017F000809180008F7703C0809180008F7D8093DF
:101800008000089584B58F7702C084B58F7D84BD34
:1018100008958091B0008F7703C08091B0008F7DD4
:101820008093B0000895809190008F7707C08091D9
:1018300090008F7D03C080919000877F80939000FF
:1018400008958091A0008F7707C08091A0008F7DC0
:1018500003C08091A000877F8093A00008958091AD
:1018600020018F7703C0809120018F7D809320011C
:10187000089580912001877F809320010895FF9231
:101880000F931F93F62E482F50E0CA0182549E4FAB
:10189000FC012491CA0188589E4FFC0114914E5CB2
:1018A0005E4FFA0104910023C9F0222319F0822F20
:1018B0000E94CB0BE02FF0E0EE0FFF1FE250FF4F36
:1018C000A591B4919FB7F894FF2021F48C911095C5
:1018D000812302C08C91812B8C939FBF1F910F910C
:1018E000FF90089580E090E00895EF92FF920F93AB
:1018F0001F93CF93DF93162F072F7A01E9011982E7
:10190000188288E696E00E94E904892BD1F0812FA5
:10191000902F9C01890110C088E696E00E941A056C
:101920002FEF8F3F920741F0F80181938F0188815B
:101930009981019699838883888199818E159F0565
:1019400058F380E090E0DF91CF911F910F91FF90CD
:10195000EF900895EF92FF920F931F938A01790100
:1019600088E696E00E941A07F7011183008380E061
:1019700090E01F910F91FF90EF9008950E94160A3A
:1019800088E696E040E052EC61E070E00E9462047C
:1019900004C088E696E00E941A0588E696E00E9458
:1019A000E904892BB1F780E090E00895862F60E08C
:1019B0000E948C0B08958F929F92AF92BF92CF920C
:1019C000DF92EF92FF920F931F93C0908F08D090F9
:1019D00090080F2EF0E08F2EF0E09F2EF0E0AF2E5B
:1019E000F0E0BF2EF02DF60180829182A282B382B8
:1019F000609191037091920380919303909194036D
:101A00002091AE093091AF094091B0095091B109D0
:101A10000E94EC37A50194010E943A36F6016083DA
:101A200071838283938320918F0930919009409133
:101A30009109509192090E943A36F60160837183B0
:101A40008283938380915F0990916009A0916109DD
:101A5000B091620984839583A683B78380918B09B3
:101A600090918C09A0918D09B0918E098087918702
:101A7000A287B38784869586A686B7866091C103C0
:101A80007091C2038091C3039091C4032091BA095D
:101A90003091BB094091BC095091BD090E94EC37BF
:101AA000A50194010E943A3620916F093091700986
:101AB00040917109509172090E943A36F60164878B
:101AC000758786879787808A918AA28AB38A848A53
:101AD000958AA68AB78A6091D1037091D2038091CA
:101AE000D3039091D4032091BE093091BF09409156
:101AF000C0095091C1090E94EC37A50194010E94D0
:101B00003A367B018C01F601608B718B828B938B53
:101B10006091D5037091D6038091D7039091D8033B
:101B20002091C2093091C3094091C4095091C5095F
:101B30000E94EC379B01AC01C801B7010E943A3604
:101B40007B018C01F601608B718B828B938BC501BD
:101B5000B4012091BE093091BF094091C009509154
:101B6000C1090E943A36F601648B758B868B978B80
:101B7000C801B7012091770930917809409179091E
:101B800050917A090E943A36F601608B718B828BF4
:101B9000938B808E918EA28EB38E848E958EA68E20
:101BA000B78E6091E9037091EA038091EB03909105
:101BB000EC032091C6093091C7094091C8095091A2
:101BC000C9090E94EC37A50194010E943A367B01B5
:101BD0008C016091ED037091EE038091EF03909181
:101BE000F0032091CA093091CB094091CC09509162
:101BF000CD090E94EC379B01AC01C801B7010E94DE
:101C00003A367B018C01F601608F718F828F938F42
:101C1000C501B4012091C6093091C7094091C80996
:101C20005091C9090E943A36F601648F758F868FEC
:101C3000978FC801B70120917F09309180094091A9
:101C40008109509182090E943A36F601608F718FA6
:101C5000828F938F1F910F91FF90EF90DF90CF9025
:101C6000BF90AF909F908F900895089584E090E08A
:101C70000E940018EAE0F8E089E491E0DF019C01AD
:101C80001D9221503040E1F786E499E090931108CD
:101C90008093100889E499E090934B0880934A0858
:101CA0008AE399E090931F0880931E088FE898E0DC
:101CB00097AF86AF89E898E090934F0880934E08DD
:101CC0008EE299E090934D0880934C08F09375084C
:101CD000E0937408F0930F08E0930E0881E090E021
:101CE000909347098093460986E998E090931709F5
:101CF0008093160986EB98E0909319098093180950
:101D000086ED98E090931B0980931A0986EF98E07E
:101D100090931D0980931C094EEA59E050938A085C
:101D20004093890886E199E0909313088093120804
:101D300080E092E090931508809314082BE439E03A
:101D400030934A092093490980E090E0A0E8BFEB76
:101D50008093420990934309A0934409B0934509A5
:101D60008DEC9CECACECBDE380933A0990933B097D
:101D7000A0933C09B0933D0988E399ECA9EAB5E743
:101D800080931E0990931F09A0932009B093210905
:101D900086ED9DEFA5EFBFEA80932209909323097A
:101DA000A0932409B09325098FE09BECA6EBB8EC37
:101DB0008093260990932709A0932809B0932909B5
:101DC00083E790EBA0EEB2EA80932A0990932B0967
:101DD000A0932C09B0932D0983E297E090930D080E
:101DE00080930C0881E297E0909324078093230767
:101DF00083E294E0909322078093210784E399E0A3
:101E000090932807809327078EE199E09093260707
:101E10008093250730932A072093290783E4E3E57D
:101E2000F9E0DF011D928A95E9F780E2FA0111924B
:101E30008A95E9F788E1E6E9F9E0DF011D928A95E4
:101E4000E9F7EFE0F7E082E1DF011D928A95E9F71B
:101E5000F0933509E09334098EE090E090931007F9
:101E600080930F0789E093E0909312078093110706
:101E700085E293E0909314078093130781E493E045
:101E8000909316078093150785E493E090931807C5
:101E9000809317078091810361E00E948C0B8091F1
:101EA000850361E00E948C0B8091890361E00E94B0
:101EB0008C0B609101047091020480910304909155
:101EC00004040E94D60C20E030E040E050E0209373
:101ED000AE093093AF094093B0095093B109809196
:101EE000A5039091A603A091A703B091A8038093A6
:101EF000B2099093B309A093B409B093B509809146
:101F0000D6099091D709A091D809B091D9098093A9
:101F1000960990939709A0939809B0939909809393
:101F20009E0990939F09A093A009B093A109809165
:101F3000B5039091B603A091B703B091B803809315
:101F4000B6099093B709A093B809B093B909209343
:101F5000BA093093BB094093BC095093BD09209343
:101F6000BE093093BF094093C0095093C109209323
:101F7000C2093093C3094093C4095093C509209303
:101F8000C6093093C7094093C8095093C9092093E3
:101F9000CA093093CB094093CC095093CD090895D9
:101FA0002F923F924F925F926F927F928F929F9269
:101FB000AF92BF92CF92DF92EF92FF920F931F9357
:101FC000DF93CF93CDB7DEB762970FB6F894DEBF3D
:101FD0000FBECDBF80914609909147099A8B898B9E
:101FE000019709F560913609709137098091380998
:101FF000909139096F5F7F4F8F4F9F4F0E94363707
:1020000020913A0930913B0940913C0950913D099A
:102010000E94EC3760931A0870931B0880931C0889
:1020200090931D0818C0A989BA89AB2BA1F42091FF
:10203000490930914A09E0914A08F0914B08019012
:10204000F081E02D80819181A281B381F9018083AB
:102050009183A283B38360919503709196038091DD
:102060009703909198032091AE093091AF09409168
:10207000B0095091B1090E94EC3720919903309139
:102080009A0340919B0350919C030E943A369B0116
:10209000AC01609353097093540980935509909350
:1020A000560960918D0370918E0380918F039091FA
:1020B00090030E94393669877A878B879C87609363
:1020C0005709709358098093590990935A092091A0
:1020D0009D0330919E0340919F035091A0030E9465
:1020E000EC371B012C0160935B0970935C098093B2
:1020F0005D0990935E0989859A85AB85BC8580933F
:102100005F0990936009A0936109B0936209BC01D3
:10211000CD012091A1033091A2034091A3035091DE
:10212000A4030E94EC377B018C016091A90370919C
:10213000AA038091AB039091AC032091B209309136
:10214000B3094091B4095091B5090E94EC379B0145
:10215000AC01C801B7010E943A366D837E838F833C
:1021600098876093630970936409809365099093DD
:10217000660969857A858B859C852091AD033091B0
:10218000AE034091AF035091B0030E94EC376983D6
:102190007A838B839C83609367097093680980932B
:1021A000690990936A09909196099D87A091970972
:1021B000AE87B0919809BF87E0919909E88BE091CB
:1021C0004909F0914A096080718082809380DD2402
:1021D000692F7A2F8B2F9889A40193010E94E837E9
:1021E0008823DCF0DD24D39460919E0970919F09CF
:1021F0008091A0099091A109A40193010E94E83760
:1022000088235CF00F2EF0E0EF2EF0E0FF2EF0E0E0
:102210000F2FF0E01F2FF02D4AC0E0909E09F090A4
:102220009F090091A0091091A1096D857E858F8578
:102230009889A80197010E949E3688234CF4C80112
:10224000B701A40193010E949E3687FD12C002C00F
:10225000DD2079F4A0909A09B0909B09C0909C0968
:10226000D0909D098D859E85AF85B8897C018D01B3
:1022700008C0A090A209B090A309C090A409D09072
:10228000A509C401B301A80197010E9439367B0159
:102290008C0169817A818B819C81A60195010E94C4
:1022A0003936A80197010E94A2367B018C0169850D
:1022B0007A858B859C852091B1033091B203409142
:1022C000B3035091B4030E94EC37A80197010E9418
:1022D0003A362091B6093091B7094091B80950912A
:1022E000B9090E943A365B016C0160936B097093E7
:1022F0006C0980936D0990936E09E090B903F0909A
:10230000BA030091BB031091BC03C201B101A80143
:1023100097010E94E837181684F0E090BD03F09012
:10232000BE030091BF031091C003C201B101A80117
:1023300097010E949E3688234CF4E0926F09F09238
:102340007009009371091093720908C020926F09F7
:102350003092700940927109509272096091C503E0
:102360007091C6038091C7039091C8032091BA0968
:102370003091BB094091BC095091BD090E94EC37D6
:1023800020E030E040E050E00E943A36609373096C
:10239000709374098093750990937609E090C9034E
:1023A000F090CA030091CB031091CC036D817E8124
:1023B0008F819885A80197010E94E837181694F03C
:1023C000E090CD03F090CE030091CF031091D003A5
:1023D0006D817E818F819885A80197010E949E362C
:1023E00088234CF4E0927709F092780900937909F8
:1023F00010937A090CC08D819E81AF81B88580933E
:10240000770990937809A0937909B0937A0960913C
:10241000D9037091DA038091DB039091DC03209162
:10242000BE093091BF094091C0095091C1090E9475
:10243000EC3720E030E040E050E00E943A367B018B
:102440008C016091DD037091DE038091DF03909138
:10245000E0032091C2093091C3094091C409509111
:10246000C5090E94EC379B01AC01C801B7010E946D
:102470003A3660937B0970937C0980937D09909331
:102480007E09E090E103F090E2030091E3031091F4
:10249000E403C601B501A80197010E94E8371816A8
:1024A00084F0E090E503F090E6030091E7031091DB
:1024B000E803C601B501A80197010E949E36882352
:1024C0004CF4E0927F09F092800900938109109307
:1024D000820908C0A0927F09B0928009C092810948
:1024E000D09282096091F1037091F2038091F3031D
:1024F0009091F4032091C6093091C7094091C80911
:102500005091C9090E94EC3720E030E040E050E0F3
:102510000E943A367B018C016091F5037091F603BD
:102520008091F7039091F8032091CA093091CB096B
:102530004091CC095091CD090E94EC379B01AC0130
:10254000C801B7010E943A366093830970938409E9
:102550008093850990938609E0906F09F090700947
:102560000091710910917209C801B70120E030E0B3
:1025700040E853E40E949E368823A4F4C801B701C2
:1025800020E030E040E050E00E94E83788233CF053
:10259000C801B7010E940A376093930906C01092E0
:1025A000930903C08FEF80939309A989BA89119782
:1025B00039F4609193098091810370E00E94AC0A24
:1025C000E0907709F09078090091790910917A09E3
:1025D000C801B70120E030E040E853E40E949E3695
:1025E0008823A4F4C801B70120E030E040E050E0C7
:1025F0000E94E83788233CF0C801B7010E940A37DF
:102600006093940906C01092940903C08FEF8093E1
:1026100094098091460990914709019739F4609196
:1026200094098091850370E00E94AC0AE0907F09D4
:10263000F09080090091810910918209C801B701C9
:1026400020E030E040E853E40E949E368823A4F462
:10265000C801B70120E030E040E050E00E94E837D8
:1026600088233CF0C801B7010E940A37609395099E
:1026700006C01092950903C08FEF80939509809151
:10268000460990914709019719F560919509809144
:10269000890370E00E94AC0A809101040E94780ACC
:1026A000A0E0B0E0BC01CD010E9436372091F903D3
:1026B0003091FA034091FB035091FC030E94EC37E8
:1026C00060938709709388098093890990938A0998
:1026D0006091FD037091FE038091FF0390910004CF
:1026E00029853A854B855C850E94EC3760938B0980
:1026F00070938C0980938D0990938E09809146097F
:10270000909147090197D1F46091870970918809E8
:102710008091890990918A092091990330919A03B7
:1027200040919B0350919C030E94393660938F091E
:1027300070939009809391099093920962960FB6D5
:10274000F894DEBF0FBECDBFCF91DF911F910F91E7
:10275000FF90EF90DF90CF90BF90AF909F908F90C1
:102760007F906F905F904F903F902F9008952F92A1
:102770003F924F925F926F927F928F929F92AF9211
:10278000BF92CF92DF92EF92FF920F931F93DF934E
:10279000CF93CDB7DEB76C970FB6F894DEBF0FBE00
:1027A000CDBF60909609709097098090980990909D
:1027B0009909A090D609B090D709C090D809D090B7
:1027C000D909C401B301A60195010E949E36882350
:1027D00029F4E0914909F0914A0921C0E0909E094D
:1027E000F0909F090091A0091091A109C801B701BB
:1027F000A60195010E949E36882329F4E09149099B
:10280000F0914A091BC0C401B301A80197010E94BD
:102810009E36E0914909F0914A0988237CF4808131
:102820009181A281B3818093960990939709A09397
:102830009809B0939909EAE9F9E00EC08081918185
:10284000A281B38180939E0990939F09A093A009D0
:10285000B093A109E2EAF9E08091670990916809D3
:10286000A0916909B0916A0980839183A283B3839F
:10287000A0904209B0904309C0904409D090450906
:10288000C601B50120E030E040E85FEB0E949E36D3
:102890008823B1F160913E0970913F098091400910
:1028A000909141090E9436377B018C012DEC3CEC64
:1028B0004CEC5DEB0E94EC379B01AC01C601B5010D
:1028C0000E943A365B016C01C801B7012DEC3CEC6B
:1028D0004CEC5DE30E94EC3720E030E040E054E354
:1028E0000E94EC379B01AC01C601B5010E94E8379C
:1028F000181634F085E092E090930B0880930A0854
:1029000080914809882331F085E092E090930B088C
:1029100080930A088091460990914709019709F030
:10292000DDC1E0914A08F0914B0820813181D90145
:102930008D919D910D90BC91A02D89879A87AB8731
:10294000BC8780911A0890911B08A0911C08B09137
:102950001D088D879E87AF87B88BE0911E08F09188
:102960001F086080718082809380E0914E08F09112
:102970004F08A081B181BA8BA98BE0911208F09128
:102980001308808191819C8B8B8BA281B381BE8B3C
:10299000AD8B84819581988F8F8BA681B781BA8FFB
:1029A000A98FE0911008F091110811821082AB8973
:1029B000BC8929893A8980E2F90101909F010D9231
:1029C0008150D1F7E0914808F09149088D899E899E
:1029D000918380830E94DB0CC401B30120E030E0CE
:1029E00040E05FE30E94EC375B016C014424552416
:1029F000E988FA88E40CF51C0B891C89040D151D67
:102A0000ED89FE89E40DF51DC601B50120813181F6
:102A1000428153810E94EC379B01AC01D8016D913A
:102A20007D918D919C910E943A36F701608371836C
:102A30008283938384E090E0480E591E90E2491609
:102A40005104B1F6E0914A08F0914B0800811181E0
:102A500069857A858B859C85A60195010E943A3609
:102A6000D8016D937D938D939C931397E0914808C3
:102A7000F09149088F89988D918380830E94D00FAF
:102A80000E94DB0CC401B301209130043091310469
:102A900040913204509133040E94EC3769837A8369
:102AA0008B839C83C401B30120913404309135049D
:102AB00040913604509137040E94EC371B012C01E1
:102AC0001C8E1B8EA988BA88AB8DBC8DAA0EBB1E2E
:102AD000CB88DC88CA0EDB1EED89FE89EA0FFB1F5E
:102AE00069817A818B819C812081318142815381EE
:102AF0000E94EC377B018C01EF89F88D8B8D9C8DCA
:102B0000E80FF91FC201B101208131814281538157
:102B10000E94EC379B01AC01C801B7010E943A3614
:102B20009B01AC01D6016D917D918D919C910E948C
:102B30003A36F50160837183828393838B8D9C8DFC
:102B400004969C8F8B8F809709F0BCCFE0914A0848
:102B5000F0914B0800811181C401B30120E030E005
:102B600040E45FE30E94EC379B01AC0169857A8504
:102B70008B859C850E943A36D8016D937D938D9309
:102B80009C931397E0914808F0914908898D9A8D9C
:102B9000918380830E94D00F0E94DB0CC401B3019B
:102BA00020913C0430913D0440913E0450913F04FB
:102BB0000E94EC376D837E838F839887C401B301B5
:102BC00020914004309141044091420450914304CB
:102BD0000E94EC371B012C01C401B3012091440475
:102BE0003091450440914604509147040E94EC37CF
:102BF0003B014C011C8E1B8EA988BA88AB8DBC8D05
:102C0000AA0EBB1ECB88DC88CA0EDB1EED89FE89AE
:102C1000EA0FFB1F6D817E818F8198852081318134
:102C2000428153810E94EC377B018C01EF89F88D42
:102C30008B8D9C8DE80FF91FC201B101208131817C
:102C4000428153810E94EC379B01AC01C801B7015E
:102C50000E943A367B018C01E98DFA8DAB8DBC8DDB
:102C6000EA0FFB1FC401B3012081318142815381EE
:102C70000E94EC379B01AC01C801B7010E943A36B3
:102C80009B01AC01F60160817181828193810E9478
:102C90003A36D5016D937D938D939C931397EB8D6D
:102CA000FC8D3496FC8FEB8FB09709F0A5CFE091A7
:102CB0004A08F0914B080190F081E02D8D859E85AA
:102CC000AF85B88980839183A283B383E091100894
:102CD000F091110881E090E0918380838091360922
:102CE00090913709A0913809B09139090196A11D39
:102CF000B11D8093360990933709A0933809B0939A
:102D00003909E0914909F0914A0980911A08909196
:102D10001B08A0911C08B0911D0880839183A28399
:102D2000B38380913E0990913F09A0914009B091F1
:102D300041090196A11DB11D80933E0990933F0961
:102D4000A0934009B09341096C960FB6F894DEBF8A
:102D50000FBECDBFCF91DF911F910F91FF90EF90EC
:102D6000DF90CF90BF90AF909F908F907F906F90AB
:102D70005F904F903F902F900895BF92CF92DF9237
:102D8000EF92FF920F931F93DF93CF930F92CDB7E4
:102D9000DEB70E94160A80E090E060E070E00E94DA
:102DA0005E1F0E94360E0091210410912204C8017A
:102DB000885C9E4F0E945C1F82E090E00E94681F2A
:102DC0001982F8018281938162E070E0AE014F5F69
:102DD0005F4F0E94871F8981882339F0025C1E4F54
:102DE00081E0F80180830E5311400E945D1F86E947
:102DF00097EE9093250180932401809173008E7F3C
:102E000080937300809120018C7F809320018091BA
:102E10002101877E8093210180912101846080932C
:102E20002101809121018C7F809321018091730089
:102E30008160809373008EE3E82E81E0F82EE00E2F
:102E4000F11E6E010894C11CD11CBB24B39410C0A8
:102E50001982F8018281938162E070E0A6010E94EC
:102E6000741F8981882311F0F701B0820E946E1FC0
:102E7000F80180819181892B21F4F70180818823D9
:102E800039F382E090E00E94651F68EE73E080E015
:102E900090E00E94BD090E94350EF89480E090E019
:102EA0000F90CF91DF911F910F91FF90EF90DF90E6
:102EB000CF90BF9008950F931F93209131072F5FFC
:102EC00020933107215049F081E090E09093300742
:102ED00080932F072093310744C078940E94D00F2D
:102EE00082E090E00E946B1F009121041091220467
:102EF000015C1E4FD801ED91FC91408151816281AE
:102F0000738180E090E00E94711F0B501040F80127
:102F100060817181828193810E9436372DEC3CEC77
:102F20004CEC5DE30E94EC37AB01BC0181E090E02A
:102F30000E94711F0E94B713F8948091310781504D
:102F40008093310790913407992359F0809132078B
:102F5000882339F47894F894915090933407109220
:102F600032071F910F9108951F920F920FB60F9283
:102F70000BB60F9211242F933F934F935F936F9350
:102F80007F938F939F93AF93BF93EF93FF9386E9C4
:102F900097EE90932501809324010E945B17FF9187
:102FA000EF91BF91AF919F918F917F916F915F91C1
:102FB0004F913F912F910F900BBE0F900FBE0F902E
:102FC0001F90189560E070E080E89FE7089560E04A
:102FD00070E080E89FE7089560E070E080E89FEF90
:102FE000089560E070E080E89FEF089560E070E091
:102FF00080EC9FEF089560E070E080EC9FEF089513
:103000000E94F6176093DA097093DB098093DC095C
:103010009093DD090E94FB176093CE097093CF094E
:103020008093D0099093D1090E94E2176093D6094A
:103030007093D7098093D8099093D9090E94E71714
:103040006093D2097093D3098093D4099093D509E2
:103050000E94EC176093DE097093DF098093E0090A
:103060009093E1090E94F1176093E2097093E309DC
:103070008093E4099093E5090895AF92BF92CF92AF
:10308000DF92EF92FF920F931F935C016A017B0125
:1030900000E010E020E030E00E949721C501B70178
:1030A000A60101E010E020E030E00E9497211F918E
:1030B0000F91FF90EF90DF90CF90BF90AF90089569
:1030C00060E070E080E090E00E946F2161E070E0DD
:1030D00080E090E00E946F2108950F931F938C0170
:1030E00060E070E080E090E0A8010E94062161E0CD
:1030F00070E080E090E0A8010E9406211F910F91EE
:103100000895CF92DF92EF92FF920F931F93DF9378
:10311000CF9300D00F92CDB7DEB77C0180913C07F2
:1031200090913D078E159F050CF580913A0790917F
:103130003B07009731F00E94F90110923D07109271
:103140003C07C7010E944F0190933B0780933A07C9
:10315000009741F400E010E083E0C82ED12CCC0EA3
:10316000DD1E1CC0F0923D07E0923C0700E010E03D
:103170006E010894C11CD11C27C080913807909122
:10318000390761E070E0A6012EE337E00E94373294
:10319000882311F58B819C81080F191F0E151F05BF
:1031A00064F31AC0B701601B710B200F311F8091AF
:1031B000380790913907A6010E943732882361F4BD
:1031C00089819A81080F191F20913A0730913B0796
:1031D0000E151F053CF302C020E030E0C9010F903E
:1031E0000F900F900F90CF91DF911F910F91FF9053
:1031F000EF90DF90CF900895AF92BF92CF92DF9281
:10320000FF920F931F93DF93CF93CDB7DEB72A972B
:103210000FB6F894DEBF0FBECDBF8B016A01A0E0F0
:10322000B0E08B839C83AD83BE83CB01AA2797FD3F
:10323000A095BA2F8F839887A987BA87809138077E
:103240009091390768E070E0AE014D5F5F4F5E011D
:103250000894A11CB11C95010E943231F82E8823DC
:10326000B9F489819A81089799F4C114D10491F035
:103270008091380790913907B801A60195010E9405
:103280003231882329F489819A818017910711F0BE
:10329000FF24F3948F2D2A960FB6F894DEBF0FBE4D
:1032A000CDBFCF91DF911F910F91FF90DF90CF9015
:1032B000BF90AF900895AF92BF92CF92DF92EF92FE
:1032C000FF920F931F93DF93CF93CDB7DEB72C9769
:1032D0000FB6F894DEBF0FBECDBF7C016B01CA01F3
:1032E00059010E948118FC010097D1F481E090E01F
:1032F000A0E0B0E08D839E83AF83B8878FEF9FEF10
:10330000AFEFBFEF89879A87AB87BC87C70168E0BB
:1033100070E0AE014B5F5F4F0E94FC1811E04FC0A0
:10332000008111812281338109831A832B833C839D
:103330008BE1E816F10461F08CE1E816F10451F537
:103340003496C601BF01A90198010E94782606C0E3
:103350003496C601B501AF010E946C2A182F88234C
:10336000C9F029813A814B815C8181E090E0A0E045
:10337000B0E08D839E83AF83B88729873A874B87D8
:103380005C87C70168E070E0AE014B5F5F4F0E9451
:10339000FC1815C089819A81AB81BC811D821E8277
:1033A0001F82188689879A87AB87BC87C70168E028
:1033B00070E0AE014B5F5F4F0E94FC18182F812F09
:1033C0002C960FB6F894DEBF0FBECDBFCF91DF9124
:1033D0001F910F91FF90EF90DF90CF90BF90AF9033
:1033E0000895EF92FF920F931F93DF93CF93CDB782
:1033F000DEB72C970FB6F894DEBF0FBECDBF8C01A1
:10340000CB017A010E948118FC010097D1F481E080
:1034100090E0A0E0B0E08D839E83AF83B8878FEF0C
:103420009FEFAFEFBFEF89879A87AB87BC87C80153
:1034300068E070E0AE014B5F5F4F0E94FC1881E0D6
:1034400028C0608171818281938169837A838B83B3
:103450009C830D31110531F00E31110531F40E94BC
:103460002D2003C0A7010E94E01F89819A81AB81B2
:10347000BC811D821E821F82188689879A87AB872E
:10348000BC87C80168E070E0AE014B5F5F4F0E94EF
:10349000FC182C960FB6F894DEBF0FBECDBFCF91AF
:1034A000DF911F910F91FF90EF9008950F931F935D
:1034B0008C01109237071092360760E070E080E0D0
:1034C00090E0A8010E945F2961E070E080E090E058
:1034D000A8010E945F2980913807909139070E94C6
:1034E00051301F910F910895CF92DF92EF92FF928A
:1034F0000F931F936B017C0189019A01809138071A
:1035000090913907B701A6010E9450301F910F9189
:10351000FF90EF90DF90CF9008951F938091380730
:10352000909139070E943730182F882361F460E0AA
:1035300070E080E090E00E94632861E070E080E04D
:1035400090E00E946328812F1F9108952F923F924F
:103550004F925F926F927F928F929F92AF92BF92A3
:10356000CF92DF92EF92FF920F931F93DF93CF934F
:10357000CDB7DEB72A970FB6F894DEBF0FBECDBF2A
:103580005B016C012A0180913707882309F46FC021
:103590008E010D5F1F4FC801B601A50192010E9467
:1035A0006F291E010894211C311C09871A8752C0FB
:1035B0000D811E81060D171DF801E080F18042810A
:1035C00053818091380790913907B70191010E948A
:1035D0003231882309F048C089819A818E159F0570
:1035E00009F042C0F801E480F5801E141F048CF439
:1035F000468157818091380790913907B701910131
:103600000E943231882381F589819A818E159F0528
:1036100059F5C401880F991FEF81F885E80FF91F4C
:1036200080819181B601A5010E9459200894811CD6
:10363000911C88E090E0680E791E8B819C81881631
:1036400099060CF4B5CF89859A85B601A50192013A
:103650000E946F298B819C811816190644F48824D6
:10366000992466247724E9CFC2010E94561A2A962B
:103670000FB6F894DEBF0FBECDBFCF91DF911F9183
:103680000F91FF90EF90DF90CF90BF90AF909F9001
:103690008F907F906F905F904F903F902F90089504
:1036A0001F93CF93DF93EC0160E070E080E090E047
:1036B0000E94C31F60E070E080E090E0AE010E94D5
:1036C000A61A60E070E080E090E0AE010E949128D0
:1036D00080913A0790913B07009731F00E94F901E1
:1036E00010923B0710923A0761E070E080E090E0B2
:1036F0000E94C31F61E070E080E090E0AE010E9494
:10370000A61A61E070E080E090E0AE010E9491288E
:1037100080913A0790913B07009731F00E94F901A0
:1037200010923B0710923A0780913607882311F4D4
:1037300010E00BC084E190E060E070E040E050E019
:103740000E94FC18182F10923607809137078823A3
:1037500041F01092370781E090E090930804809345
:10376000070480913807909139070E945634809160
:103770003807909139070E944F30812FDF91CF9108
:103780001F9108952F923F924F925F926F927F9276
:103790008F929F92AF92BF92CF92DF92EF92FF9261
:1037A0000F931F93DF93CF93CDB7DEB7A0970FB6DC
:1037B000F894DEBF0FBECDBF6C017B012A01809162
:1037C0003707882359F4809138079091390767E3C8
:1037D00077E00E943930882309F012C380913707BF
:1037E000882309F40DC31A82198200E010E058E022
:1037F000652E712C4BE0842E912C8C0E9D1E5E014B
:103800000894A11CB11CB301601B710B9401200F23
:10381000311F8091380790913907A5010E943732F6
:10382000282F882351F489819A81080F191F0115C7
:10383000110519F00830110534F389819A8122238A
:1038400009F0DBC2181619060CF0DAC280913607AF
:10385000882321F41B861C861D861E868B859C85ED
:10386000AD85BE8586309105A105B10509F468C016
:1038700087309105A105B10510F582309105A105AC
:10388000B10509F4BAC283309105A105B10558F418
:103890000097A105B10509F468C00197A105B1051C
:1038A00009F0AEC24BC284309105A105B10509F4FF
:1038B00058C10597A105B10509F0A2C281C189309F
:1038C0009105A105B10509F490C28A309105A105C1
:1038D000B10558F487309105A105B105D1F10897DC
:1038E000A105B10509F08CC226C08B309105A10558
:1038F000B10509F476C28B309105A105B10508F434
:1039000063C20F97A105B10509F07AC2D6011696D8
:10391000ED91FC91179780819181A281B3818B8376
:103920009C83AD83BE8385E190E064E070E0AE01EE
:103930004D5F5F4F2DC16F8578898DE190E059C251
:103940004F8558898BE190E0B601970105E014E0BE
:1039500009C04F8558898CE190E0B6012FEF3FEF09
:1039600006E014E00E945B194BC2D6011496ED915B
:10397000FC91159700811181F801F281FD8FD8012A
:103980001396BC91BE8FF801F081FB8FD801119680
:10399000BC91BC8F30E1832E912CA12CB12C8B8A51
:1039A0009C8AAD8ABE8A88E090E0A0E0B0E08F8B70
:1039B000988FA98FBA8F23E1422E512C4C0E5D1E99
:1039C000809138079091390768E070E0A2013E01CC
:1039D0000894611C711C93010E943231882309F004
:1039E000BAC089819A81089709F0B5C0F801E080D2
:1039F000F18088E090E0E80EF91EEE0CFF1CEE0C62
:103A0000FF1CC7010E944F018F8F98A38C011C01DE
:103A1000009709F4A2C08B8A9C8AAD8ABE8AC7012E
:103A2000AA2797FDA095BA2F8F8B988FA98FBA8F51
:103A3000809138079091390768E070E0A201930106
:103A40000E943231882309F088C089819A810897C1
:103A500009F083C04B8D5C8DD6011296ED91FC91DF
:103A60001397A080B180C280D380D801AD92BD925F
:103A7000CD92DC921397A480B580C680D78014962F
:103A8000AD92BD92CD92DC921797A084B184C2848E
:103A9000D3841896AD92BD92CD92DC921B9784850B
:103AA0009585A685B785F80184879587A687B7870A
:103AB000D80150961D921D921D921C92539784E03E
:103AC00090E0A0E0B0E0848B958BA68BB78B8091C3
:103AD000070490910804A0E0B0E0808F918FA28F3E
:103AE000B38FCA01AA2797FDA095BA2F848F958F0F
:103AF000A68FB78F2D8D3E8DC901BC012F8D38A1AA
:103B0000C901FC0120E030E00CC0DB018D919D91EA
:103B1000BD01A0E0B0E0848F958FA68FB78F2F5F97
:103B20003F4F34962417350784F3809138079091DE
:103B30003907B701A8019E012F5F3F4F0E94323124
:103B4000882359F489819A818E159F0531F481E08B
:103B50008093360702C022243324C1010E94F90158
:103B60004FC18F8598890E948118BC018E01095F21
:103B70001F4F009781F481E090E0A0E0B0E08F83D8
:103B80009887A987BA8782E190E064E070E0A80195
:103B90000E94FC1835C1C6010E945E251F8218864E
:103BA00019861A8682E190E064E070E0A8010E9424
:103BB000FC18882309F024C181E08093350720C1D7
:103BC000D6011496ED91FC9115970190F081E02DAE
:103BD000A084B184A114B10409F495C0D5016D90FD
:103BE0007C908280938000E010E060E070E040E034
:103BF00050E021C0F501A281B381A40FB51F129638
:103C0000ED91FC911397EE0FFF1FE80DF91D208138
:103C1000318116968D919C911797DC012A9FC001E6
:103C20002B9F900D3A9F900D1124080F191F6F5F65
:103C30007F4F485F5F4F66157705E4F283E190E0C0
:103C4000A0E0B0E08B8B9C8BAD8BBE8BC801AA270C
:103C500097FDA095BA2F8F8B988FA98FBA8F8091DF
:103C600038079091390768E070E0AE014D5E5F4F14
:103C70006E010894C11CD11C96010E943231882328
:103C800009F0BEC089819A81089709F0B9C0EE2475
:103C9000FF2400E010E0260132C0F501A281B381CB
:103CA000A00FB11F1296ED91FC911397EE0FFF1F1D
:103CB000E80DF91D2081318116968D919C91179701
:103CC000289F6001299FD00C389FD00C11244D9162
:103CD0005C918091380790913907B60192010E945A
:103CE0003231882309F08CC0085F1F4F89819A8187
:103CF0008C159D0509F084C00894E11CF11CE614A4
:103D0000F7045CF27DC083E190E0A0E0B0E08B8B33
:103D10009C8BAD8BBE8B1F8A188E198E1A8E80914C
:103D200038079091390768E070E0AE014D5E5F4F53
:103D30009E012F5F3F4F0E94323162C081E190E0CF
:103D400060E070E040E050E00E94FC18882309F039
:103D500057C060E070E080E090E00E94C31F809157
:103D60004107882339F060E070E080E090E0A7012F
:103D70000E94A61A60E070E080E090E0A7010E9437
:103D8000912861E070E080E090E00E94C31F809184
:103D90004107882339F061E070E080E090E0A701FE
:103DA0000E94A61A61E070E080E090E0A7010E9406
:103DB000912810923707109236078091380790911A
:103DC00039070E9446301CC081E090E09093400784
:103DD00080933F0786E190E060E070E040E050E0D3
:103DE000D7CE81E0D2018C930BC06F8578898EE1AC
:103DF00090E0A7010E94F11903C0C7010E94561A62
:103E0000A0960FB6F894DEBF0FBECDBFCF91DF9165
:103E10001F910F91FF90EF90DF90CF90BF90AF90E8
:103E20009F908F907F906F905F904F903F902F90DA
:103E300008950F931F938C0160E070E080E090E0A4
:103E4000A8010E94A61A61E070E080E090E0A8015D
:103E50000E94A61A1F910F910895809138079091A2
:103E600039070E94493008950F931F93CF93DF9332
:103E7000EC018B010E944C309093390780933807F6
:103E8000009719F4CCE9D2E007C0BE01A8010E9456
:103E9000D433EC01009751F08091380790913907A5
:103EA0000E944F301092390710923807CE01DF91EF
:103EB000CF911F910F9108950895089580E090E0AB
:103EC00060E070E00E94341F08950E94501B089526
:103ED0000E948D1A08950E946D1808950E9460181E
:103EE00008950E943D180895CF93DF939C01EB0144
:103EF0008091070490910804049731F0C9010E9451
:103F0000C21BCE010E94191FDF91CF910895EF923D
:103F1000FF920F931F93CF93DF937C018B01EA01F4
:103F20000E942D1F882399F41BC060E070E080E0A0
:103F300090E028ED38EB45E050E00E94741AC7018C
:103F4000B801AE010E94C21BC8010E94191F8091D6
:103F50003F0790914007892B19F48881882329F322
:103F60008091070490910804049731F083E090E079
:103F70009093080480930704DF91CF911F910F91D4
:103F8000FF90EF90089524E430E0629FF001639F7A
:103F9000F00D729FF00D1124EE5BF84F828993892A
:103FA0000497029760F485E090E0938B828B8FEF0B
:103FB0009FEFAFEFBFEF828F938FA48FB58F0895E0
:103FC000CF93DF9324E430E0629FD001639FB00D74
:103FD000729FB00D1124AE5BB84F109241079D96B1
:103FE0001C921E929C9760E070E020E030E0C1E0FF
:103FF000D0E019C01A96ED91FC911B97E20FF31FC8
:10400000828193811816190654F4848195819783CF
:1040100086839187808713861286D183C0836F5FE2
:104020007F4F225F3F4F6417750724F39B961C92C6
:104030001E929A97D9961C921E92D897FD01FE96D1
:10404000108211821282138282E090E053969C9338
:104050008E935297DF91CF91089524E430E0629FD0
:10406000F001639FF00D729FF00D1124EE5BF84F8D
:104070008289938981309105D8F08530910518F0B7
:104080000597B1F40DC08FEF9FEFAFEFBFEF828FB9
:10409000938FA48FB58F85E090E0938B828B0895EA
:1040A0008FEF9FEFAFEFBFEF828F938FA48FB58F0E
:1040B000089524E430E0429FF001439FF00D529FA9
:1040C000F00D1124EE5BF84F9C01220F331FC90144
:1040D00043E0880F991F4A95E1F7821B930B0284F6
:1040E000F385E02DE80FF91F81E080934107828579
:1040F000938591878087208531858681978140E0EF
:1041000050E02817390711F441E050E05183408313
:104110000895EF92FF920F931F93CF93DF93DC01EB
:10412000EA01F9011496ED90FC90159712964D91C5
:104130005C9113972881398118968D919C911997DC
:104140008217930730F08D919C911197892B09F478
:104150003FC08701040F151FA801421B530B18967F
:104160008D919C9119978E199F09840F951F861721
:1041700097070CF443C0260F371F888199812017B9
:10418000310728F471836083938382832EC0518327
:10419000408393838283CB01841B950B9583848317
:1041A000181619061CF080E090E004C014968D915A
:1041B0009C9115979783868314968D919C91159762
:1041C00024813581820F931F9983888380E017C0F3
:1041D00018968D919C911997821B930B86179707C0
:1041E0006CF071836083338322831582148217827B
:1041F000168288819981860F971FE6CF81E0DF9133
:10420000CF911F910F91FF90EF900895EF92FF9241
:104210000F931F93CF93DF937B018C01FA0184E40A
:1042200090E0E89EE001E99ED00DF89ED00D1124AB
:10423000CE5BD84F8A899B89009709F449C00197C2
:10424000C1F48AA59BA52A8D3B8D4C8D5D8D019671
:104250009BA78AA70197AA2797FDA095BA2F821737
:104260009307A407B507A1F5C801B701AF010E94E4
:10427000E01F8A899B89039759F58AA59BA52E8DF6
:104280003F8D48A159A101969BA78AA70197AA270C
:1042900097FDA095BA2F82179307A407B507C4F01E
:1042A0008EAD9FAD9BA78AA784E090E09B8B8A8B05
:1042B0008AAD9BADACADBDAD181619061A061B062E
:1042C0003CF4FE01EE5BFF4F81E090E09183808340
:1042D000DF91CF911F910F91FF90EF90089524E40B
:1042E00030E0629FF001639FF00D729FF00D11248A
:1042F000EE5BF84F828993890097C1F00497B1F47F
:1043000082A593A5019693A782A7AA2797FDA095BA
:10431000BA2F26893789408D518D82179307A407BC
:10432000B50721F485E090E0938B828B08952F925E
:104330003F924F925F926F927F928F929F92AF9235
:10434000BF92CF92DF92EF92FF920F931F93DF9372
:10435000CF93CDB7DEB7CC54D0400FB6F894DEBFC4
:104360000FBECDBF27969FAF8EAF27974DA75EA7F5
:104370006FA778AB2B960CAF1DAF2EAF3FAF2B972F
:1043800084E490E029962EAD3FAD2997289F400107
:10439000299F900C389F900C112442E457E0840E22
:1043A000951ED4011A960D90BC91A02D2596BFAFF5
:1043B000AEAF2597F40182899389029709F025C150
:1043C00086A597A5A0A9B1A90097A105B10529F4D3
:1043D00084E090E0938B828B18C1D40154968D9128
:1043E0009C9155972796EEADFFAD2797E817F907F3
:1043F00009F00BC1D6962D913C91D7973EAF2DAFCA
:104400001DAA1EAA1FAA18AE1CAA1BAACBC0D401A3
:10441000D2964D905C90D397EBA9FCA94E0E5F1EEF
:10442000D20112960D90BC91A02DBCAFABAFB6954A
:10443000A795B695A795BAAFA9AFF40180AD91AD98
:10444000892B09F489C0E6A0F7A000A511A56DACE1
:104450007EACD2012D903C9021961FAE1EAE2197CE
:1044600071C0F40182A193A1892B61F1D101AD90BA
:10447000BD90CD90DC90C601B501A80197010E94C6
:10448000E83788235CF0F301608171818281938138
:10449000A80197010E949E3687FD98C0C601B5010C
:1044A000A80197010E94E837181664F4D3016D91B2
:1044B0007D918D919C91A80197010E949E36882341
:1044C00009F484C0F40184A195A1892B61F1D10183
:1044D000AD90BD90CD90DC90C601B501A8019701CB
:1044E0000E949E3688235CF4F30160817181828191
:1044F0009381A80197010E94E83787FF67C0C60132
:10450000B501A80197010E949E36882361F4D3016A
:104510006D917D918D919C91A80197010E94E83742
:1045200018160CF453C02196EEADFFAD21973196CD
:104530002196FFAFEEAF219724E030E0620E731EAC
:10454000220E331E21964EAD5FAD219789AD9AADF7
:10455000481759070CF485CFD2016C9111967C91C4
:104560008DAD9EAD4BAD5CAD0E945102E9ADFAAD93
:10457000EE0FFF1FEE0FFF1F2DAD3EAD2E0F3F1FA5
:104580003EAF2DAF8DA99EA9AFA9B8AD0196A11DD3
:10459000B11D8DAB9EABAFABB8AFABA9BCA91496A8
:1045A000BCABABABF40186A597A5A0A9B1A92DA979
:1045B0003EA94FA958AD281739074A075B070CF4E5
:1045C00026CF81E090E091AF80AF1FC0F401868DCF
:1045D000978DA0A1B1A10097A105B10549F484E090
:1045E00090E0938B828B86AD97AD93A782A70DC089
:1045F00083E090E0D40153969C938E93529781E090
:1046000090E09B969C938E939A97F401828993896C
:104610008230910571F482AD93ADA4ADB5AD18169D
:1046200019061A061B060CF02FC2A1E02A2E312C07
:1046300005C0049709F028C22224332427968EADA2
:104640009FAD2797880F991F7C01E3E0EE0CFF1CBC
:10465000EA95E1F7E81AF90A25962EAD3FAD2597C0
:10466000E20EF31ED70112966D917C91139761159E
:10467000710519F480E090E0FAC1F7018681978115
:104680009A838983FE01799684E1DF011D928A95E0
:10469000E9F72B962CAD3DAD4EAD5FAD2B9729A71D
:1046A0003AA74BA75CA72114310409F446C0F401D2
:1046B000FE962081318142815381F40182AD93AD18
:1046C000A4ADB5AD281739074A075B07B1F5D70187
:1046D00014964D915C911597640F751F1896ED9186
:1046E000FC91199784819581A681B7819C018B8368
:1046F0009C83AD83BE83285F3F4FF7018085918502
:10470000820F931F9187808780859185861B970BE9
:1047100097FD04C0480F591F518740873C832B8366
:10472000F401FE9680819181A281B3810197A10954
:10473000B10980839183A283B383C70164E170E0F0
:104740008E010F5F1F4FA8019E012F5E3F4F0E94F9
:10475000892090E0009709F08AC18D8D9E8DAF8DE4
:10476000B8A10C96A11DB11D8D8F9E8FAF8FB8A3E0
:10477000C70164E070E0A8019E01275F3F4F0E94DF
:104780008920282F30E03AAB29AB232B09F06DC1EB
:104790008D8D9E8DAF8DB8A10496A11DB11D8D8FFD
:1047A0009E8FAF8FB8A38E01035D1F4F49855A8539
:1047B0008B859C85B8010E9451026F8578896115AF
:1047C000710551F029853A85200F311F4D855E8591
:1047D000CB01B9010E9451021D821E821F821886E0
:1047E00027964EAD5FAD2797440F551F23965FAFB9
:1047F0004EAF2397CE0105962D969FAF8EAF2D9786
:10480000D4C0C901880F991F880F991FF401A08592
:10481000B185A80FB91FED91FC911197E081EE23AE
:1048200009F4B8C0E33009F4B5C01296ED91FC91DB
:10483000139723962EAD3FAD2397E20FF31F4080D1
:1048400051804114510409F4A5C089A19AA1ABA1DA
:10485000BCA10196A11DB11D89A39AA3ABA3BCA3C2
:10486000C70164E070E0AE014F5F5F4F9E01275FBC
:104870003F4F0E94892090E0009709F0F8C08D8D8D
:104880009E8DAF8DB8A10496A11DB11D8D8F9E8FF9
:10489000AF8FB8A349855A858B859C852C966FADC3
:1048A0002C972D967FAD2D970E9451026F857889A8
:1048B0006115710571F029853A8545E050E04C0F8E
:1048C0005D1F240F351F4D855E85CB01B9010E9408
:1048D0005102AA24BB2465016624772450C0D2016A
:1048E00014960D911C911597060D171DF801628104
:1048F0007381C701AE014F5F5F4F9E01275F3F4F3E
:104900000E94892090E0009709F0B1C0D80112966A
:104910002D913C911397442737FD4095542F8D8D51
:104920009E8DAF8DB8A1820F931FA41FB51F8D8FD1
:104930009E8FAF8FB8A3F8016081718149855A8538
:104940008B859C850E9451026F8578896115710560
:1049500069F0D8012D913C9189859A85280F391FDE
:104960004D855E85CB01B9010E9451020894A11CBE
:10497000B11CC11CD11CE4E0F0E06E0E7F1EF20100
:1049800080819181A281B381A816B906CA06DB068F
:104990000CF4A5CF8D819E81AF81B8850196A11DB4
:1049A000B11D8D839E83AF83B8872D813E814F815A
:1049B0005885F40184819581A681B781281739072C
:1049C0004A075B070CF41DCF89A19AA1ABA1BCA13A
:1049D0000097A105B10509F448C08AE190E0A0E084
:1049E000B0E0898F9A8FAB8FBC8F27962EAD3FADED
:1049F0002797C901AA2797FDA095BA2F8DA39EA33B
:104A0000AFA3B8A78E01075E1F4F49895A898B89CA
:104A10009C89B8010E9451026F89788D61157105DA
:104A200051F029893A89200F311F4D895E89CB01C8
:104A3000B9010E94510289819A81D70117969C93EE
:104A40008E93169711961C921E922328E9F0F4017A
:104A5000FE9680819181A281B3810196A11DB11D35
:104A600080839183A283B3830FC089A99AA9232845
:104A700059F4892B49F081E090E0F40195A784A7CF
:104A800085E090E0938B828BC45BDF4F0FB6F89488
:104A9000DEBF0FBECDBFCF91DF911F910F91FF9071
:104AA000EF90DF90CF90BF90AF909F908F907F90CE
:104AB0006F905F904F903F902F9008952F923F926C
:104AC0004F925F926F927F928F929F92AF92BF921E
:104AD000CF92DF92EF92FF920F931F93DF93CF93CA
:104AE000CDB7DEB768970FB6F894DEBF0FBECDBF67
:104AF000DC011496ED91FC9115970190F081E02D69
:104B000080859185988F8F8BA281B381BE8BAD8B71
:104B1000FB0181919191A191B19189839A83AB839A
:104B2000BC8366247724430165C09E012B5F3F4F01
:104B3000AF0180E1DA010D90AD01D9010D929D0127
:104B40008150C1F730E1432E512C4E0E5F1E8D81F6
:104B50009E8123E0880F991F2A95E1F7EF89F88D50
:104B6000A281B381A80FB91F2D903C901197E989BC
:104B7000FA89EE0FFF1F8D899E89E80FF91F0190BA
:104B8000F081E02D14968D919C911597892B19F445
:104B900081E090E002C082E090E08E9F70018F9FE4
:104BA000F00C9E9FF00C11240027F7FC0095102FAD
:104BB0002D853E854F855889C801B7010E944F3821
:104BC0005B016C0129853A854B855C85C801B7017D
:104BD0000E944F389101260F371FC901B201A5016C
:104BE0000E945102F201EA0DFB1D0894611C711C28
:104BF000811C911C89819A81AB81BC8168167906E0
:104C00008A069B060CF491CF68960FB6F894DEBF27
:104C10000FBECDBFCF91DF911F910F91FF90EF900D
:104C2000DF90CF90BF90AF909F908F907F906F90CC
:104C30005F904F903F902F900895CF93DF9324E49F
:104C400030E0629FE001639FD00D729FD00D112470
:104C5000CE5BD84F8AA99BA9009721F00E94F90149
:104C60001BAA1AAA8EA99FA9009721F00E94F901F8
:104C70001FAA1EAA1B8A1A8A1E8A1F8A188E198EBC
:104C80001A8E1B8E1C8E1D8E1E8E1F8E18A219A2B0
:104C900081E090E09BA38AA31DA21CA280E090E08B
:104CA000A0E0B0E08EA39FA3A8A7B9A71BA61AA651
:104CB0001DA61CA61EA61FA618AA19AA1BAA1AAAD8
:104CC0001DAA1CAA1FAA1EAA19AE18AE1AAE1BAEA8
:104CD0001CAE1DAEFE01FE9610821182128213825E
:104CE000FE01EE5BFF4F11821082DF91CF9108959C
:104CF0002F923F924F925F926F927F928F929F92EC
:104D0000AF92BF92CF92DF92EF92FF920F931F93D9
:104D1000DF93CF93CDB7DEB7AC970FB6F894DEBF75
:104D20000FBECDBF98A38F8F8B0129A33AA34BA3AE
:104D30005CA3FB0181919191A191B191AF01BC0163
:104D400089839A83AB83BC8329A13AA184E490E050
:104D5000289FF001299FF00D389FF00D11249F012D
:104D60002E5B384F3EA32DA3D90155967C936E93AD
:104D700054979F01285A384FD80114964D905D9052
:104D80006D907C901797D9014D925D926D927C92B7
:104D90001397BA016C5F7F4F9F01245A384FDA0195
:104DA00014964D905D906D907C901797D9014D921F
:104DB0005D926D927C921397AB014C5F5F4F9F01A8
:104DC000205A384FDB0114964D905D906D907C9089
:104DD0001797D9014D925D926D927C921397E0598D
:104DE000F84FDA0114964D905D906D907C90179776
:104DF0004082518262827382FA013896FE8FED8F73
:104E00000DA11EA1025D1F4FC201141415040CF068
:104E1000C3C0880F991F880F991F0E944F019C01E2
:104E20008DA19EA1C296ADA1BEA1D3963C932E9317
:104E3000D297232B09F427C12224332421011A8E6F
:104E4000198E18A70FA39AA789A7D496BCA7ABA7BA
:104E500088C0E9A5FAA50190F081E02D298D3A8D51
:104E6000E20FF31FFC8FEB8FDE011996ED8DFE8DA7
:104E700080E101900D928150E1F7AF8DB8A11496B9
:104E8000ED91FC91159720813181D9011696ED9114
:104E9000FC91179789859A8553E0880F991F5A9539
:104EA000E1F7A281B381A80FB91F6D907C90119793
:104EB0008D899E89880F991FF90122813381280FDE
:104EC000391FF9014081518114968D919C9115975C
:104ED000892B19F481E090E002C082E090E02D8DF2
:104EE0003E8D205F3F4F3E8F2D8F849F7001859FA9
:104EF000F00C949FF00C11240027F7FC0095102F64
:104F000029893A894B895C89C801B7010E944F38C9
:104F10004B015C016B012D853E854F855889C80189
:104F2000B7010E944F38660E771EAB8DBC8D11966F
:104F30007C926E9213969C928E921297EBA5FCA592
:104F400080819181C80ED91ED182C0820894211C13
:104F5000311C411C511C298D3A8D2C5F3F4F3A8FDB
:104F6000298FEFA1F8A580819181A281B3812816B4
:104F700039064A065B060CF46CCFADA1BEA1D496EF
:104F80008D919C91D5970E944F01EDA1FEA197AB09
:104F900086AB009709F477C0AD8DBE8D2C9111962C
:104FA0003C91119712964C91129713965C912D8318
:104FB0003E834F835887C901DA01AC01BD01411519
:104FC00051056105710539F0A0E0B0E042305105AE
:104FD0006105710511F4A1E0B0E029A13AA184E4D2
:104FE00090E0289FF001299FF00D389FF00D1124CB
:104FF000EE5BF84FB3A3A2A315A214A241505040F8
:1050000060407040423051056105710520F481E037
:1050100090E095A384A384E490E0E9A1FAA1E89F3D
:105020009001E99F300DF89F300D1124A9014859D6
:10503000584FED8DFE8D84819581A681B781FA014F
:1050400080839183A283B383F901EE5BF84F268DB1
:10505000378D40A151A157FF10C088279927DC0147
:10506000821B930BA40BB50B82AF93AFA4AFB5AF6C
:10507000168E178E10A211A204C012AE13AE14AE7B
:1050800015AE80E007C069A17AA18BA19CA10E9406
:105090001D2681E0AC960FB6F894DEBF0FBECDBFE3
:1050A000CF91DF911F910F91FF90EF90DF90CF9004
:1050B000BF90AF909F908F907F906F905F904F9038
:1050C0003F902F900895CF93DF939B01AC0184E430
:1050D00090E0289FF001299FF00D389FF00D1124DA
:1050E000EE5BF84FD901A75FBB4F8C91882331F05D
:1050F00084E4EF0119928A95E9F71C9214821582D3
:10510000168217821186108613861286118A108ADB
:1051100017861686CA01B9010E941D26DF91CF911C
:1051200008952F923F924F925F926F927F928F924B
:105130009F92AF92BF92CF92DF92EF92FF920F9326
:105140001F93DF93CF9300D00F92CDB7DEB73B0113
:105150004C015A83498384E490E0689E7001699E03
:10516000F00C789EF00C112482E497E0E80EF91E12
:10517000F70184819581A681B7810097A105B105CA
:1051800009F486C0AA24BB2465014424552435C0F3
:10519000E40DF51D32802380232D322DC9019C831F
:1051A0008B8300E010E017C0AB81BC81ED91FC91D6
:1051B000309751F0848195810E94F901EB81FC8147
:1051C000808191810E94F9010F5F1F4F8B819C812B
:1051D00002969C838B83A981BA810A171B0724F34B
:1051E000832D922D0E94F9010894A11CB11CC11CB1
:1051F000D11CE4E0F0E04E0E5F1ED70114962D9115
:105200003D914D915C9117971896ED91FC911997EE
:10521000A216B306C406D5060CF4BACFCF010E947D
:10522000F901F70182859385892BF1F000E010E008
:10523000CC24DD240CC0EC0DFD1D848195810E94E1
:10524000F9010F5F1F4F8EE090E0C80ED91ED70105
:105250001A96ED91FC911B9789819A81081719077D
:1052600054F3CF010E94F901D70150968D919C9182
:1052700051970E94F901F701868597850E94F901EF
:10528000C401B3010E941D26C401B3010E9463281A
:105290000F900F900F900F90CF91DF911F910F9172
:1052A000FF90EF90DF90CF90BF90AF909F908F9046
:1052B0007F906F905F904F903F902F90089524E4DF
:1052C00030E0629FF001639FF00D729FF00D11249A
:1052D000EE5BF84F138A128A0E94912808954F922C
:1052E0005F926F927F928F929F92AF92BF92CF9276
:1052F000DF92EF92FF920F931F93DF93CF9300D033
:105300000F92CDB7DEB75C0149835A836B837C83F0
:10531000290184E490E0489F8001499F100D589F27
:10532000100D11240E5B184FF801828993890497A0
:10533000029708F0B4C0F501118210821382128224
:10534000F80115861486882499246624772460C081
:10535000F80142855385460D571DFA0180819181E0
:10536000892B09F04EC0C084D184E280F38066812D
:105370007781F801848595859C01A3E0220F331F76
:10538000AA95E1F7A089B189A20FB31F880F991FD1
:1053900026853785280F391FF90191828082F8010F
:1053A000848595850196958784871396DC92CE92A5
:1053B0001297FA0173876287C616D70670F46C19C4
:1053C0007D0911967C936E9315961C921E921497EC
:1053D00017961C921E92169714C0FA01848195812B
:1053E000E80EF91EEC18FD081196FC92EE92681B6F
:1053F000790B15967C936E93149717969C938E93C6
:1054000016970894811C911C8EE090E0680E791E1E
:10541000841495040CF49CCFF80184859585F501DE
:1054200091838083F80120893189F50133832283B8
:10543000F80126853785F50135832483892BB9F555
:10544000F80182899389059791F510924107828D21
:10545000938DA48DB58DAE014F5F5F4F8F5F9F4FD2
:10546000AF4FBF4F71F480E290E064E070E00E94C3
:10547000FC1869817A818B819C81A2010E945F293D
:1054800016C08FE190E064E070E00E94FC18F80123
:1054900013A612A681E090E0938B828B08C0F801DE
:1054A00015861486F50111821082138212820F90E4
:1054B0000F900F900F90CF91DF911F910F91FF9060
:1054C000EF90DF90CF90BF90AF909F908F907F90A4
:1054D0006F905F904F9008952F923F924F925F92FE
:1054E0006F927F928F929F92AF92BF92CF92DF92F4
:1054F000EF92FF920F931F93DF93CF93CDB7DEB759
:10550000E6970FB6F894DEBF0FBECDBF98AB8FA75E
:105510007AAB69AB7A010BAB1CAB2DAB3EAB84E431
:1055200090E04BA95CA9489F9001499F300D589F7E
:10553000300D11242E5B384F3AA729A78BA99CA9BF
:10554000ADA9BEA9F90180839183A283B383BC0175
:10555000CD0149A95AA90E949128D7012D913D91C9
:105560004D915C91C901E9A5FAA524833583468351
:10557000578364E070E00E943301A9A5BAA519968B
:105580009C938E931897009709F04FC104C2E9A528
:10559000FAA50084F185E02D298D3A8DE20FF31FE5
:1055A000FEA7EDA70BA51CA5F80181919191A191F2
:1055B000B1918F019C018D839E83AF83B887220FA9
:1055C000331FAFA5B8A9ED91FC91E20FF31F8081C5
:1055D0009181EDA5FEA591838083EBA5FCA5848137
:1055E0009581A681B78189839A83AB83BC8389A97E
:1055F0009AA962E070E00E943301ADA5BEA51396A2
:105600009C938E931297009709F4C5C1F8013496C4
:10561000FCA7EBA71F8E18A219A21AA2F7C0EBA530
:10562000FCA580819181A281B3819C018D839E83A1
:10563000AF83B887220F331FADA5BEA512960D917B
:105640001C911397020F131F81E090E068E070E057
:105650000E943301F801808391838D819E81880FA0
:10566000991FADA5BEA51296ED91FC911397E80F79
:10567000F91F608071806114710409F48CC10BA55D
:105680001CA50C5F1F4FEBA5FCA52481358146812D
:105690005781C901D3012D933D934D935C9313978B
:1056A00064E070E00E943301F301958384830097E6
:1056B00009F471C198012C5F3F4F3CA72BA722240E
:1056C000332421011CA21BA28AC0D30114960D9081
:1056D000BC91A02DEBA1FCA1AE0FBF1FBEA3ADA33B
:1056E000DE011996EBA5FCA580E101900D92815099
:1056F000E1F7AFA5B8A91496ED91FC91159720811B
:105700003181D9011696ED91FC91179789859A857B
:1057100053E0880F991F5A95E1F7A281B381A80F32
:10572000B91FED91FC911197F8A7EFA38D899E8980
:10573000880F991FF90122813381280F391FF90140
:105740004081518114968D919C911597892B19F464
:1057500081E090E002C082E090E02BA53CA5205FB4
:105760003F4F3CA72BA7849F7001859FF00C949F0F
:10577000F00C11240027F7FC0095102F29893A8995
:105780004B895C89C801B7010E944F385B016C01ED
:105790002D853E854F855889C801B7010E944F3835
:1057A0004FA158A5460F571FADA1BEA111965C93FE
:1057B0004E931396BC92AE921297F3018681978115
:1057C0008A0D9B1D978386830894211C311C411CE4
:1057D000511C2BA13CA12C5F3F4F3CA32BA3F301F9
:1057E00080819181A281B381281639064A065B0621
:1057F0000CF46BCF2F8D38A149A15AA12F5F3F4FD9
:105800004F4F5F4F2F8F38A349A35AA389819A81A5
:10581000AB81BC812F8D38A149A15AA12817390726
:105820004A075B070CF4FBCED8C0A7014C5F5F4F63
:105830005CA74BA71B8E1C8E1D8E1E8E1A8E198E7A
:10584000E9A5FAA584819581A681B7812B8D3C8D30
:105850004D8D5E8D281739074A075B070CF497CEEC
:1058600089A99AA96EE070E00E943301A9A5BAA5A2
:105870001A968C931A971B969C93442455242224A1
:1058800033246624772401E0C02ED12C5BC0EBA525
:10589000FCA580819181A281B3819C0189839A8337
:1058A000AB83BC83A9A5BAA51A964D915C911B97B1
:1058B000790137FD70C08A01060D171DF801D182EC
:1058C000C0822115310559F0C9010E944F01D8014C
:1058D00015969C938E931497009721F45CC0F80161
:1058E000158214822BA53CA52C5F3F4F3CA72BA70C
:1058F000D8011396FC92EE92129714968D919C917A
:10590000159717969C938E93169719969C938E9342
:1059100018971B961C921E921A9720E030E08981FE
:105920009A81AB81BC810097A105B10511F021E0FE
:1059300030E0420E531E0894211C311CEEE0F0E0D2
:105940006E0E7F1E29A93AA9221633060CF49FCFAA
:10595000A9A5BAA51D961C921E921C97C20113E020
:10596000880F991F1A95E1F70E944F01E9A5FAA542
:10597000918B808B009779F0C201880F991F0E944C
:105980004F01A9A5BAA51F969C938E931E970097C9
:1059900011F080E009C06BA97CA98DA99EA949A935
:1059A0005AA90E94912881E0E6960FB6F894DEBFCE
:1059B0000FBECDBFCF91DF911F910F91FF90EF9060
:1059C000DF90CF90BF90AF909F908F907F906F901F
:1059D0005F904F903F902F9008952B8D3C8D4D8D73
:1059E0005E8D2F5F3F4F4F4F5F4F2B8F3C8F4D8F03
:1059F0005E8F498D5A8D4C5F5F4F5A8F498F20CFF4
:105A00002F923F924F925F926F927F928F929F92CE
:105A1000AF92BF92CF92DF92EF92FF920F931F93BC
:105A2000DF93CF93CDB7DEB72F970FB6F894DEBFD5
:105A30000FBECDBF7C016B01DB0111968C918823D9
:105A400009F4E6C11A821B821C821D8219828EE72C
:105A5000F7018083818383E085878687108A178694
:105A6000128A118AD70153961D921D921D921C9283
:105A7000569757961C9237010894611C711C32E0AE
:105A8000432E512C4E0C5F1C23E0822E912C8E0C49
:105A90009F1C9DE0A92EB12CAE0CBF1CFE013A96B6
:105AA000FF87EE8781E0282E312CC601BE016F5F93
:105AB0007F4F21E030E040E050E08E010E5F1F4F4D
:105AC0000E947534882309F0A4C18A819B81AC812E
:105AD000BD810197A105B10551F0D70150961C92E7
